{"contracts/Authentication.sol":{"Authentication":{"abi":[{"inputs":[{"internalType":"string","name":"email","type":"string"},{"internalType":"string","name":"password","type":"string"}],"name":"doLogin","outputs":[{"internalType":"bool","name":"","type":"bool"}],"stateMutability":"view","type":"function"},{"inputs":[{"internalType":"string","name":"name","type":"string"},{"internalType":"string","name":"email","type":"string"},{"internalType":"string","name":"password","type":"string"}],"name":"doSignup","outputs":[{"internalType":"string","name":"","type":"string"}],"stateMutability":"nonpayable","type":"function"},{"inputs":[],"name":"getUsers","outputs":[{"components":[{"internalType":"string","name":"name","type":"string"},{"internalType":"string","name":"email","type":"string"},{"internalType":"string","name":"password","type":"string"}],"internalType":"struct Authentication.User[]","name":"","type":"tuple[]"}],"stateMutability":"view","type":"function"},{"inputs":[{"internalType":"uint256","name":"","type":"uint256"}],"name":"users","outputs":[{"internalType":"string","name":"name","type":"string"},{"internalType":"string","name":"email","type":"string"},{"internalType":"string","name":"password","type":"string"}],"stateMutability":"view","type":"function"}],"evm":{"bytecode":{"linkReferences":{},"object":"608060405234801561001057600080fd5b506111b8806100206000396000f3fe608060405234801561001057600080fd5b506004361061004b5760003560e01c8062ce8e3e14610050578063365b98b21461006e57806382e2ec2a146100a0578063c5c8b095146100d0575b600080fd5b610058610100565b60405161006591906109d0565b60405180910390f35b61008860048036038101906100839190610a3c565b610315565b60405161009793929190610ab3565b60405180910390f35b6100ba60048036038101906100b59190610c34565b6104e7565b6040516100c79190610cc7565b60405180910390f35b6100ea60048036038101906100e59190610ce2565b610528565b6040516100f79190610d89565b60405180910390f35b60606000805480602002602001604051908101604052809291908181526020016000905b8282101561030c578382906000526020600020906003020160405180606001604052908160008201805461015790610dda565b80601f016020809104026020016040519081016040528092919081815260200182805461018390610dda565b80156101d05780601f106101a5576101008083540402835291602001916101d0565b820191906000526020600020905b8154815290600101906020018083116101b357829003601f168201915b505050505081526020016001820180546101e990610dda565b80601f016020809104026020016040519081016040528092919081815260200182805461021590610dda565b80156102625780601f1061023757610100808354040283529160200191610262565b820191906000526020600020905b81548152906001019060200180831161024557829003601f168201915b5050505050815260200160028201805461027b90610dda565b80601f01602080910402602001604051908101604052809291908181526020018280546102a790610dda565b80156102f45780601f106102c9576101008083540402835291602001916102f4565b820191906000526020600020905b8154815290600101906020018083116102d757829003601f168201915b50505050508152505081526020019060010190610124565b50505050905090565b6000818154811061032557600080fd5b906000526020600020906003020160009150905080600001805461034890610dda565b80601f016020809104026020016040519081016040528092919081815260200182805461037490610dda565b80156103c15780601f10610396576101008083540402835291602001916103c1565b820191906000526020600020905b8154815290600101906020018083116103a457829003601f168201915b5050505050908060010180546103d690610dda565b80601f016020809104026020016040519081016040528092919081815260200182805461040290610dda565b801561044f5780601f106104245761010080835404028352916020019161044f565b820191906000526020600020905b81548152906001019060200180831161043257829003601f168201915b50505050509080600201805461046490610dda565b80601f016020809104026020016040519081016040528092919081815260200182805461049090610dda565b80156104dd5780601f106104b2576101008083540402835291602001916104dd565b820191906000526020600020905b8154815290600101906020018083116104c057829003601f168201915b5050505050905083565b600080604051806060016040528060405180602001604052806000815250815260200185815260200184815250905061051f816105f9565b91505092915050565b6060600060405180606001604052808681526020018581526020018481525090506000819080600181540180825580915050600190039060005260206000209060030201600090919091909150600082015181600001908161058a9190610fb7565b5060208201518160010190816105a09190610fb7565b5060408201518160020190816105b69190610fb7565b5050506040518060400160405280601681526020017f5375636365737366756c6c79205369676e6564205570000000000000000000008152509150509392505050565b600080600090505b6000805490508110156107bc5760006106cb6000838154811061062757610626611089565b5b9060005260206000209060030201600101805461064390610dda565b80601f016020809104026020016040519081016040528092919081815260200182805461066f90610dda565b80156106bc5780601f10610691576101008083540402835291602001916106bc565b820191906000526020600020905b81548152906001019060200180831161069f57829003601f168201915b505050505085602001516107c7565b9050600061078a600084815481106106e6576106e5611089565b5b9060005260206000209060030201600201805461070290610dda565b80601f016020809104026020016040519081016040528092919081815260200182805461072e90610dda565b801561077b5780601f106107505761010080835404028352916020019161077b565b820191906000526020600020905b81548152906001019060200180831161075e57829003601f168201915b505050505086604001516107c7565b90508180156107965750805b156107a757600193505050506107c2565b505080806107b4906110e7565b915050610601565b50600090505b919050565b6000816040516020016107da919061116b565b6040516020818303038152906040528051906020012083604051602001610801919061116b565b6040516020818303038152906040528051906020012014905092915050565b600081519050919050565b600082825260208201905092915050565b6000819050602082019050919050565b600081519050919050565b600082825260208201905092915050565b60005b8381101561088657808201518184015260208101905061086b565b60008484015250505050565b6000601f19601f8301169050919050565b60006108ae8261084c565b6108b88185610857565b93506108c8818560208601610868565b6108d181610892565b840191505092915050565b600060608301600083015184820360008601526108f982826108a3565b9150506020830151848203602086015261091382826108a3565b9150506040830151848203604086015261092d82826108a3565b9150508091505092915050565b600061094683836108dc565b905092915050565b6000602082019050919050565b600061096682610820565b610970818561082b565b9350836020820285016109828561083c565b8060005b858110156109be578484038952815161099f858261093a565b94506109aa8361094e565b925060208a01995050600181019050610986565b50829750879550505050505092915050565b600060208201905081810360008301526109ea818461095b565b905092915050565b6000604051905090565b600080fd5b600080fd5b6000819050919050565b610a1981610a06565b8114610a2457600080fd5b50565b600081359050610a3681610a10565b92915050565b600060208284031215610a5257610a516109fc565b5b6000610a6084828501610a27565b91505092915050565b600082825260208201905092915050565b6000610a858261084c565b610a8f8185610a69565b9350610a9f818560208601610868565b610aa881610892565b840191505092915050565b60006060820190508181036000830152610acd8186610a7a565b90508181036020830152610ae18185610a7a565b90508181036040830152610af58184610a7a565b9050949350505050565b600080fd5b600080fd5b7f4e487b7100000000000000000000000000000000000000000000000000000000600052604160045260246000fd5b610b4182610892565b810181811067ffffffffffffffff82111715610b6057610b5f610b09565b5b80604052505050565b6000610b736109f2565b9050610b7f8282610b38565b919050565b600067ffffffffffffffff821115610b9f57610b9e610b09565b5b610ba882610892565b9050602081019050919050565b82818337600083830152505050565b6000610bd7610bd284610b84565b610b69565b905082815260208101848484011115610bf357610bf2610b04565b5b610bfe848285610bb5565b509392505050565b600082601f830112610c1b57610c1a610aff565b5b8135610c2b848260208601610bc4565b91505092915050565b60008060408385031215610c4b57610c4a6109fc565b5b600083013567ffffffffffffffff811115610c6957610c68610a01565b5b610c7585828601610c06565b925050602083013567ffffffffffffffff811115610c9657610c95610a01565b5b610ca285828601610c06565b9150509250929050565b60008115159050919050565b610cc181610cac565b82525050565b6000602082019050610cdc6000830184610cb8565b92915050565b600080600060608486031215610cfb57610cfa6109fc565b5b600084013567ffffffffffffffff811115610d1957610d18610a01565b5b610d2586828701610c06565b935050602084013567ffffffffffffffff811115610d4657610d45610a01565b5b610d5286828701610c06565b925050604084013567ffffffffffffffff811115610d7357610d72610a01565b5b610d7f86828701610c06565b9150509250925092565b60006020820190508181036000830152610da38184610a7a565b905092915050565b7f4e487b7100000000000000000000000000000000000000000000000000000000600052602260045260246000fd5b60006002820490506001821680610df257607f821691505b602082108103610e0557610e04610dab565b5b50919050565b60008190508160005260206000209050919050565b60006020601f8301049050919050565b600082821b905092915050565b600060088302610e6d7fffffffffffffffffffffffffffffffffffffffffffffffffffffffffffffffff82610e30565b610e778683610e30565b95508019841693508086168417925050509392505050565b6000819050919050565b6000610eb4610eaf610eaa84610a06565b610e8f565b610a06565b9050919050565b6000819050919050565b610ece83610e99565b610ee2610eda82610ebb565b848454610e3d565b825550505050565b600090565b610ef7610eea565b610f02818484610ec5565b505050565b5b81811015610f2657610f1b600082610eef565b600181019050610f08565b5050565b601f821115610f6b57610f3c81610e0b565b610f4584610e20565b81016020851015610f54578190505b610f68610f6085610e20565b830182610f07565b50505b505050565b600082821c905092915050565b6000610f8e60001984600802610f70565b1980831691505092915050565b6000610fa78383610f7d565b9150826002028217905092915050565b610fc08261084c565b67ffffffffffffffff811115610fd957610fd8610b09565b5b610fe38254610dda565b610fee828285610f2a565b600060209050601f831160018114611021576000841561100f578287015190505b6110198582610f9b565b865550611081565b601f19841661102f86610e0b565b60005b8281101561105757848901518255600182019150602085019450602081019050611032565b868310156110745784890151611070601f891682610f7d565b8355505b6001600288020188555050505b505050505050565b7f4e487b7100000000000000000000000000000000000000000000000000000000600052603260045260246000fd5b7f4e487b7100000000000000000000000000000000000000000000000000000000600052601160045260246000fd5b60006110f282610a06565b91507fffffffffffffffffffffffffffffffffffffffffffffffffffffffffffffffff8203611124576111236110b8565b5b600182019050919050565b600081905092915050565b60006111458261084c565b61114f818561112f565b935061115f818560208601610868565b80840191505092915050565b6000611177828461113a565b91508190509291505056fea2646970667358221220bd806c3ae75d2da2e2d17408e97e8c2e78b6844e8667fb03650e802b2ab8535a64736f6c63430008130033","opcodes":"PUSH1 0x80 PUSH1 0x40 MSTORE CALLVALUE DUP1 ISZERO PUSH2 0x10 JUMPI PUSH1 0x0 DUP1 REVERT JUMPDEST POP PUSH2 0x11B8 DUP1 PUSH2 0x20 PUSH1 0x0 CODECOPY PUSH1 0x0 RETURN INVALID PUSH1 0x80 PUSH1 0x40 MSTORE CALLVALUE DUP1 ISZERO PUSH2 0x10 JUMPI PUSH1 0x0 DUP1 REVERT JUMPDEST POP PUSH1 0x4 CALLDATASIZE LT PUSH2 0x4B JUMPI PUSH1 0x0 CALLDATALOAD PUSH1 0xE0 SHR DUP1 PUSH3 0xCE8E3E EQ PUSH2 0x50 JUMPI DUP1 PUSH4 0x365B98B2 EQ PUSH2 0x6E JUMPI DUP1 PUSH4 0x82E2EC2A EQ PUSH2 0xA0 JUMPI DUP1 PUSH4 0xC5C8B095 EQ PUSH2 0xD0 JUMPI JUMPDEST PUSH1 0x0 DUP1 REVERT JUMPDEST PUSH2 0x58 PUSH2 0x100 JUMP JUMPDEST PUSH1 0x40 MLOAD PUSH2 0x65 SWAP2 SWAP1 PUSH2 0x9D0 JUMP JUMPDEST PUSH1 0x40 MLOAD DUP1 SWAP2 SUB SWAP1 RETURN JUMPDEST PUSH2 0x88 PUSH1 0x4 DUP1 CALLDATASIZE SUB DUP2 ADD SWAP1 PUSH2 0x83 SWAP2 SWAP1 PUSH2 0xA3C JUMP JUMPDEST PUSH2 0x315 JUMP JUMPDEST PUSH1 0x40 MLOAD PUSH2 0x97 SWAP4 SWAP3 SWAP2 SWAP1 PUSH2 0xAB3 JUMP JUMPDEST PUSH1 0x40 MLOAD DUP1 SWAP2 SUB SWAP1 RETURN JUMPDEST PUSH2 0xBA PUSH1 0x4 DUP1 CALLDATASIZE SUB DUP2 ADD SWAP1 PUSH2 0xB5 SWAP2 SWAP1 PUSH2 0xC34 JUMP JUMPDEST PUSH2 0x4E7 JUMP JUMPDEST PUSH1 0x40 MLOAD PUSH2 0xC7 SWAP2 SWAP1 PUSH2 0xCC7 JUMP JUMPDEST PUSH1 0x40 MLOAD DUP1 SWAP2 SUB SWAP1 RETURN JUMPDEST PUSH2 0xEA PUSH1 0x4 DUP1 CALLDATASIZE SUB DUP2 ADD SWAP1 PUSH2 0xE5 SWAP2 SWAP1 PUSH2 0xCE2 JUMP JUMPDEST PUSH2 0x528 JUMP JUMPDEST PUSH1 0x40 MLOAD PUSH2 0xF7 SWAP2 SWAP1 PUSH2 0xD89 JUMP JUMPDEST PUSH1 0x40 MLOAD DUP1 SWAP2 SUB SWAP1 RETURN JUMPDEST PUSH1 0x60 PUSH1 0x0 DUP1 SLOAD DUP1 PUSH1 0x20 MUL PUSH1 0x20 ADD PUSH1 0x40 MLOAD SWAP1 DUP2 ADD PUSH1 0x40 MSTORE DUP1 SWAP3 SWAP2 SWAP1 DUP2 DUP2 MSTORE PUSH1 0x20 ADD PUSH1 0x0 SWAP1 JUMPDEST DUP3 DUP3 LT ISZERO PUSH2 0x30C JUMPI DUP4 DUP3 SWAP1 PUSH1 0x0 MSTORE PUSH1 0x20 PUSH1 0x0 KECCAK256 SWAP1 PUSH1 0x3 MUL ADD PUSH1 0x40 MLOAD DUP1 PUSH1 0x60 ADD PUSH1 0x40 MSTORE SWAP1 DUP2 PUSH1 0x0 DUP3 ADD DUP1 SLOAD PUSH2 0x157 SWAP1 PUSH2 0xDDA JUMP JUMPDEST DUP1 PUSH1 0x1F ADD PUSH1 0x20 DUP1 SWAP2 DIV MUL PUSH1 0x20 ADD PUSH1 0x40 MLOAD SWAP1 DUP2 ADD PUSH1 0x40 MSTORE DUP1 SWAP3 SWAP2 SWAP1 DUP2 DUP2 MSTORE PUSH1 0x20 ADD DUP3 DUP1 SLOAD PUSH2 0x183 SWAP1 PUSH2 0xDDA JUMP JUMPDEST DUP1 ISZERO PUSH2 0x1D0 JUMPI DUP1 PUSH1 0x1F LT PUSH2 0x1A5 JUMPI PUSH2 0x100 DUP1 DUP4 SLOAD DIV MUL DUP4 MSTORE SWAP2 PUSH1 0x20 ADD SWAP2 PUSH2 0x1D0 JUMP JUMPDEST DUP3 ADD SWAP2 SWAP1 PUSH1 0x0 MSTORE PUSH1 0x20 PUSH1 0x0 KECCAK256 SWAP1 JUMPDEST DUP2 SLOAD DUP2 MSTORE SWAP1 PUSH1 0x1 ADD SWAP1 PUSH1 0x20 ADD DUP1 DUP4 GT PUSH2 0x1B3 JUMPI DUP3 SWAP1 SUB PUSH1 0x1F AND DUP3 ADD SWAP2 JUMPDEST POP POP POP POP POP DUP2 MSTORE PUSH1 0x20 ADD PUSH1 0x1 DUP3 ADD DUP1 SLOAD PUSH2 0x1E9 SWAP1 PUSH2 0xDDA JUMP JUMPDEST DUP1 PUSH1 0x1F ADD PUSH1 0x20 DUP1 SWAP2 DIV MUL PUSH1 0x20 ADD PUSH1 0x40 MLOAD SWAP1 DUP2 ADD PUSH1 0x40 MSTORE DUP1 SWAP3 SWAP2 SWAP1 DUP2 DUP2 MSTORE PUSH1 0x20 ADD DUP3 DUP1 SLOAD PUSH2 0x215 SWAP1 PUSH2 0xDDA JUMP JUMPDEST DUP1 ISZERO PUSH2 0x262 JUMPI DUP1 PUSH1 0x1F LT PUSH2 0x237 JUMPI PUSH2 0x100 DUP1 DUP4 SLOAD DIV MUL DUP4 MSTORE SWAP2 PUSH1 0x20 ADD SWAP2 PUSH2 0x262 JUMP JUMPDEST DUP3 ADD SWAP2 SWAP1 PUSH1 0x0 MSTORE PUSH1 0x20 PUSH1 0x0 KECCAK256 SWAP1 JUMPDEST DUP2 SLOAD DUP2 MSTORE SWAP1 PUSH1 0x1 ADD SWAP1 PUSH1 0x20 ADD DUP1 DUP4 GT PUSH2 0x245 JUMPI DUP3 SWAP1 SUB PUSH1 0x1F AND DUP3 ADD SWAP2 JUMPDEST POP POP POP POP POP DUP2 MSTORE PUSH1 0x20 ADD PUSH1 0x2 DUP3 ADD DUP1 SLOAD PUSH2 0x27B SWAP1 PUSH2 0xDDA JUMP JUMPDEST DUP1 PUSH1 0x1F ADD PUSH1 0x20 DUP1 SWAP2 DIV MUL PUSH1 0x20 ADD PUSH1 0x40 MLOAD SWAP1 DUP2 ADD PUSH1 0x40 MSTORE DUP1 SWAP3 SWAP2 SWAP1 DUP2 DUP2 MSTORE PUSH1 0x20 ADD DUP3 DUP1 SLOAD PUSH2 0x2A7 SWAP1 PUSH2 0xDDA JUMP JUMPDEST DUP1 ISZERO PUSH2 0x2F4 JUMPI DUP1 PUSH1 0x1F LT PUSH2 0x2C9 JUMPI PUSH2 0x100 DUP1 DUP4 SLOAD DIV MUL DUP4 MSTORE SWAP2 PUSH1 0x20 ADD SWAP2 PUSH2 0x2F4 JUMP JUMPDEST DUP3 ADD SWAP2 SWAP1 PUSH1 0x0 MSTORE PUSH1 0x20 PUSH1 0x0 KECCAK256 SWAP1 JUMPDEST DUP2 SLOAD DUP2 MSTORE SWAP1 PUSH1 0x1 ADD SWAP1 PUSH1 0x20 ADD DUP1 DUP4 GT PUSH2 0x2D7 JUMPI DUP3 SWAP1 SUB PUSH1 0x1F AND DUP3 ADD SWAP2 JUMPDEST POP POP POP POP POP DUP2 MSTORE POP POP DUP2 MSTORE PUSH1 0x20 ADD SWAP1 PUSH1 0x1 ADD SWAP1 PUSH2 0x124 JUMP JUMPDEST POP POP POP POP SWAP1 POP SWAP1 JUMP JUMPDEST PUSH1 0x0 DUP2 DUP2 SLOAD DUP2 LT PUSH2 0x325 JUMPI PUSH1 0x0 DUP1 REVERT JUMPDEST SWAP1 PUSH1 0x0 MSTORE PUSH1 0x20 PUSH1 0x0 KECCAK256 SWAP1 PUSH1 0x3 MUL ADD PUSH1 0x0 SWAP2 POP SWAP1 POP DUP1 PUSH1 0x0 ADD DUP1 SLOAD PUSH2 0x348 SWAP1 PUSH2 0xDDA JUMP JUMPDEST DUP1 PUSH1 0x1F ADD PUSH1 0x20 DUP1 SWAP2 DIV MUL PUSH1 0x20 ADD PUSH1 0x40 MLOAD SWAP1 DUP2 ADD PUSH1 0x40 MSTORE DUP1 SWAP3 SWAP2 SWAP1 DUP2 DUP2 MSTORE PUSH1 0x20 ADD DUP3 DUP1 SLOAD PUSH2 0x374 SWAP1 PUSH2 0xDDA JUMP JUMPDEST DUP1 ISZERO PUSH2 0x3C1 JUMPI DUP1 PUSH1 0x1F LT PUSH2 0x396 JUMPI PUSH2 0x100 DUP1 DUP4 SLOAD DIV MUL DUP4 MSTORE SWAP2 PUSH1 0x20 ADD SWAP2 PUSH2 0x3C1 JUMP JUMPDEST DUP3 ADD SWAP2 SWAP1 PUSH1 0x0 MSTORE PUSH1 0x20 PUSH1 0x0 KECCAK256 SWAP1 JUMPDEST DUP2 SLOAD DUP2 MSTORE SWAP1 PUSH1 0x1 ADD SWAP1 PUSH1 0x20 ADD DUP1 DUP4 GT PUSH2 0x3A4 JUMPI DUP3 SWAP1 SUB PUSH1 0x1F AND DUP3 ADD SWAP2 JUMPDEST POP POP POP POP POP SWAP1 DUP1 PUSH1 0x1 ADD DUP1 SLOAD PUSH2 0x3D6 SWAP1 PUSH2 0xDDA JUMP JUMPDEST DUP1 PUSH1 0x1F ADD PUSH1 0x20 DUP1 SWAP2 DIV MUL PUSH1 0x20 ADD PUSH1 0x40 MLOAD SWAP1 DUP2 ADD PUSH1 0x40 MSTORE DUP1 SWAP3 SWAP2 SWAP1 DUP2 DUP2 MSTORE PUSH1 0x20 ADD DUP3 DUP1 SLOAD PUSH2 0x402 SWAP1 PUSH2 0xDDA JUMP JUMPDEST DUP1 ISZERO PUSH2 0x44F JUMPI DUP1 PUSH1 0x1F LT PUSH2 0x424 JUMPI PUSH2 0x100 DUP1 DUP4 SLOAD DIV MUL DUP4 MSTORE SWAP2 PUSH1 0x20 ADD SWAP2 PUSH2 0x44F JUMP JUMPDEST DUP3 ADD SWAP2 SWAP1 PUSH1 0x0 MSTORE PUSH1 0x20 PUSH1 0x0 KECCAK256 SWAP1 JUMPDEST DUP2 SLOAD DUP2 MSTORE SWAP1 PUSH1 0x1 ADD SWAP1 PUSH1 0x20 ADD DUP1 DUP4 GT PUSH2 0x432 JUMPI DUP3 SWAP1 SUB PUSH1 0x1F AND DUP3 ADD SWAP2 JUMPDEST POP POP POP POP POP SWAP1 DUP1 PUSH1 0x2 ADD DUP1 SLOAD PUSH2 0x464 SWAP1 PUSH2 0xDDA JUMP JUMPDEST DUP1 PUSH1 0x1F ADD PUSH1 0x20 DUP1 SWAP2 DIV MUL PUSH1 0x20 ADD PUSH1 0x40 MLOAD SWAP1 DUP2 ADD PUSH1 0x40 MSTORE DUP1 SWAP3 SWAP2 SWAP1 DUP2 DUP2 MSTORE PUSH1 0x20 ADD DUP3 DUP1 SLOAD PUSH2 0x490 SWAP1 PUSH2 0xDDA JUMP JUMPDEST DUP1 ISZERO PUSH2 0x4DD JUMPI DUP1 PUSH1 0x1F LT PUSH2 0x4B2 JUMPI PUSH2 0x100 DUP1 DUP4 SLOAD DIV MUL DUP4 MSTORE SWAP2 PUSH1 0x20 ADD SWAP2 PUSH2 0x4DD JUMP JUMPDEST DUP3 ADD SWAP2 SWAP1 PUSH1 0x0 MSTORE PUSH1 0x20 PUSH1 0x0 KECCAK256 SWAP1 JUMPDEST DUP2 SLOAD DUP2 MSTORE SWAP1 PUSH1 0x1 ADD SWAP1 PUSH1 0x20 ADD DUP1 DUP4 GT PUSH2 0x4C0 JUMPI DUP3 SWAP1 SUB PUSH1 0x1F AND DUP3 ADD SWAP2 JUMPDEST POP POP POP POP POP SWAP1 POP DUP4 JUMP JUMPDEST PUSH1 0x0 DUP1 PUSH1 0x40 MLOAD DUP1 PUSH1 0x60 ADD PUSH1 0x40 MSTORE DUP1 PUSH1 0x40 MLOAD DUP1 PUSH1 0x20 ADD PUSH1 0x40 MSTORE DUP1 PUSH1 0x0 DUP2 MSTORE POP DUP2 MSTORE PUSH1 0x20 ADD DUP6 DUP2 MSTORE PUSH1 0x20 ADD DUP5 DUP2 MSTORE POP SWAP1 POP PUSH2 0x51F DUP2 PUSH2 0x5F9 JUMP JUMPDEST SWAP2 POP POP SWAP3 SWAP2 POP POP JUMP JUMPDEST PUSH1 0x60 PUSH1 0x0 PUSH1 0x40 MLOAD DUP1 PUSH1 0x60 ADD PUSH1 0x40 MSTORE DUP1 DUP7 DUP2 MSTORE PUSH1 0x20 ADD DUP6 DUP2 MSTORE PUSH1 0x20 ADD DUP5 DUP2 MSTORE POP SWAP1 POP PUSH1 0x0 DUP2 SWAP1 DUP1 PUSH1 0x1 DUP2 SLOAD ADD DUP1 DUP3 SSTORE DUP1 SWAP2 POP POP PUSH1 0x1 SWAP1 SUB SWAP1 PUSH1 0x0 MSTORE PUSH1 0x20 PUSH1 0x0 KECCAK256 SWAP1 PUSH1 0x3 MUL ADD PUSH1 0x0 SWAP1 SWAP2 SWAP1 SWAP2 SWAP1 SWAP2 POP PUSH1 0x0 DUP3 ADD MLOAD DUP2 PUSH1 0x0 ADD SWAP1 DUP2 PUSH2 0x58A SWAP2 SWAP1 PUSH2 0xFB7 JUMP JUMPDEST POP PUSH1 0x20 DUP3 ADD MLOAD DUP2 PUSH1 0x1 ADD SWAP1 DUP2 PUSH2 0x5A0 SWAP2 SWAP1 PUSH2 0xFB7 JUMP JUMPDEST POP PUSH1 0x40 DUP3 ADD MLOAD DUP2 PUSH1 0x2 ADD SWAP1 DUP2 PUSH2 0x5B6 SWAP2 SWAP1 PUSH2 0xFB7 JUMP JUMPDEST POP POP POP PUSH1 0x40 MLOAD DUP1 PUSH1 0x40 ADD PUSH1 0x40 MSTORE DUP1 PUSH1 0x16 DUP2 MSTORE PUSH1 0x20 ADD PUSH32 0x5375636365737366756C6C79205369676E656420557000000000000000000000 DUP2 MSTORE POP SWAP2 POP POP SWAP4 SWAP3 POP POP POP JUMP JUMPDEST PUSH1 0x0 DUP1 PUSH1 0x0 SWAP1 POP JUMPDEST PUSH1 0x0 DUP1 SLOAD SWAP1 POP DUP2 LT ISZERO PUSH2 0x7BC JUMPI PUSH1 0x0 PUSH2 0x6CB PUSH1 0x0 DUP4 DUP2 SLOAD DUP2 LT PUSH2 0x627 JUMPI PUSH2 0x626 PUSH2 0x1089 JUMP JUMPDEST JUMPDEST SWAP1 PUSH1 0x0 MSTORE PUSH1 0x20 PUSH1 0x0 KECCAK256 SWAP1 PUSH1 0x3 MUL ADD PUSH1 0x1 ADD DUP1 SLOAD PUSH2 0x643 SWAP1 PUSH2 0xDDA JUMP JUMPDEST DUP1 PUSH1 0x1F ADD PUSH1 0x20 DUP1 SWAP2 DIV MUL PUSH1 0x20 ADD PUSH1 0x40 MLOAD SWAP1 DUP2 ADD PUSH1 0x40 MSTORE DUP1 SWAP3 SWAP2 SWAP1 DUP2 DUP2 MSTORE PUSH1 0x20 ADD DUP3 DUP1 SLOAD PUSH2 0x66F SWAP1 PUSH2 0xDDA JUMP JUMPDEST DUP1 ISZERO PUSH2 0x6BC JUMPI DUP1 PUSH1 0x1F LT PUSH2 0x691 JUMPI PUSH2 0x100 DUP1 DUP4 SLOAD DIV MUL DUP4 MSTORE SWAP2 PUSH1 0x20 ADD SWAP2 PUSH2 0x6BC JUMP JUMPDEST DUP3 ADD SWAP2 SWAP1 PUSH1 0x0 MSTORE PUSH1 0x20 PUSH1 0x0 KECCAK256 SWAP1 JUMPDEST DUP2 SLOAD DUP2 MSTORE SWAP1 PUSH1 0x1 ADD SWAP1 PUSH1 0x20 ADD DUP1 DUP4 GT PUSH2 0x69F JUMPI DUP3 SWAP1 SUB PUSH1 0x1F AND DUP3 ADD SWAP2 JUMPDEST POP POP POP POP POP DUP6 PUSH1 0x20 ADD MLOAD PUSH2 0x7C7 JUMP JUMPDEST SWAP1 POP PUSH1 0x0 PUSH2 0x78A PUSH1 0x0 DUP5 DUP2 SLOAD DUP2 LT PUSH2 0x6E6 JUMPI PUSH2 0x6E5 PUSH2 0x1089 JUMP JUMPDEST JUMPDEST SWAP1 PUSH1 0x0 MSTORE PUSH1 0x20 PUSH1 0x0 KECCAK256 SWAP1 PUSH1 0x3 MUL ADD PUSH1 0x2 ADD DUP1 SLOAD PUSH2 0x702 SWAP1 PUSH2 0xDDA JUMP JUMPDEST DUP1 PUSH1 0x1F ADD PUSH1 0x20 DUP1 SWAP2 DIV MUL PUSH1 0x20 ADD PUSH1 0x40 MLOAD SWAP1 DUP2 ADD PUSH1 0x40 MSTORE DUP1 SWAP3 SWAP2 SWAP1 DUP2 DUP2 MSTORE PUSH1 0x20 ADD DUP3 DUP1 SLOAD PUSH2 0x72E SWAP1 PUSH2 0xDDA JUMP JUMPDEST DUP1 ISZERO PUSH2 0x77B JUMPI DUP1 PUSH1 0x1F LT PUSH2 0x750 JUMPI PUSH2 0x100 DUP1 DUP4 SLOAD DIV MUL DUP4 MSTORE SWAP2 PUSH1 0x20 ADD SWAP2 PUSH2 0x77B JUMP JUMPDEST DUP3 ADD SWAP2 SWAP1 PUSH1 0x0 MSTORE PUSH1 0x20 PUSH1 0x0 KECCAK256 SWAP1 JUMPDEST DUP2 SLOAD DUP2 MSTORE SWAP1 PUSH1 0x1 ADD SWAP1 PUSH1 0x20 ADD DUP1 DUP4 GT PUSH2 0x75E JUMPI DUP3 SWAP1 SUB PUSH1 0x1F AND DUP3 ADD SWAP2 JUMPDEST POP POP POP POP POP DUP7 PUSH1 0x40 ADD MLOAD PUSH2 0x7C7 JUMP JUMPDEST SWAP1 POP DUP2 DUP1 ISZERO PUSH2 0x796 JUMPI POP DUP1 JUMPDEST ISZERO PUSH2 0x7A7 JUMPI PUSH1 0x1 SWAP4 POP POP POP POP PUSH2 0x7C2 JUMP JUMPDEST POP POP DUP1 DUP1 PUSH2 0x7B4 SWAP1 PUSH2 0x10E7 JUMP JUMPDEST SWAP2 POP POP PUSH2 0x601 JUMP JUMPDEST POP PUSH1 0x0 SWAP1 POP JUMPDEST SWAP2 SWAP1 POP JUMP JUMPDEST PUSH1 0x0 DUP2 PUSH1 0x40 MLOAD PUSH1 0x20 ADD PUSH2 0x7DA SWAP2 SWAP1 PUSH2 0x116B JUMP JUMPDEST PUSH1 0x40 MLOAD PUSH1 0x20 DUP2 DUP4 SUB SUB DUP2 MSTORE SWAP1 PUSH1 0x40 MSTORE DUP1 MLOAD SWAP1 PUSH1 0x20 ADD KECCAK256 DUP4 PUSH1 0x40 MLOAD PUSH1 0x20 ADD PUSH2 0x801 SWAP2 SWAP1 PUSH2 0x116B JUMP JUMPDEST PUSH1 0x40 MLOAD PUSH1 0x20 DUP2 DUP4 SUB SUB DUP2 MSTORE SWAP1 PUSH1 0x40 MSTORE DUP1 MLOAD SWAP1 PUSH1 0x20 ADD KECCAK256 EQ SWAP1 POP SWAP3 SWAP2 POP POP JUMP JUMPDEST PUSH1 0x0 DUP2 MLOAD SWAP1 POP SWAP2 SWAP1 POP JUMP JUMPDEST PUSH1 0x0 DUP3 DUP3 MSTORE PUSH1 0x20 DUP3 ADD SWAP1 POP SWAP3 SWAP2 POP POP JUMP JUMPDEST PUSH1 0x0 DUP2 SWAP1 POP PUSH1 0x20 DUP3 ADD SWAP1 POP SWAP2 SWAP1 POP JUMP JUMPDEST PUSH1 0x0 DUP2 MLOAD SWAP1 POP SWAP2 SWAP1 POP JUMP JUMPDEST PUSH1 0x0 DUP3 DUP3 MSTORE PUSH1 0x20 DUP3 ADD SWAP1 POP SWAP3 SWAP2 POP POP JUMP JUMPDEST PUSH1 0x0 JUMPDEST DUP4 DUP2 LT ISZERO PUSH2 0x886 JUMPI DUP1 DUP3 ADD MLOAD DUP2 DUP5 ADD MSTORE PUSH1 0x20 DUP2 ADD SWAP1 POP PUSH2 0x86B JUMP JUMPDEST PUSH1 0x0 DUP5 DUP5 ADD MSTORE POP POP POP POP JUMP JUMPDEST PUSH1 0x0 PUSH1 0x1F NOT PUSH1 0x1F DUP4 ADD AND SWAP1 POP SWAP2 SWAP1 POP JUMP JUMPDEST PUSH1 0x0 PUSH2 0x8AE DUP3 PUSH2 0x84C JUMP JUMPDEST PUSH2 0x8B8 DUP2 DUP6 PUSH2 0x857 JUMP JUMPDEST SWAP4 POP PUSH2 0x8C8 DUP2 DUP6 PUSH1 0x20 DUP7 ADD PUSH2 0x868 JUMP JUMPDEST PUSH2 0x8D1 DUP2 PUSH2 0x892 JUMP JUMPDEST DUP5 ADD SWAP2 POP POP SWAP3 SWAP2 POP POP JUMP JUMPDEST PUSH1 0x0 PUSH1 0x60 DUP4 ADD PUSH1 0x0 DUP4 ADD MLOAD DUP5 DUP3 SUB PUSH1 0x0 DUP7 ADD MSTORE PUSH2 0x8F9 DUP3 DUP3 PUSH2 0x8A3 JUMP JUMPDEST SWAP2 POP POP PUSH1 0x20 DUP4 ADD MLOAD DUP5 DUP3 SUB PUSH1 0x20 DUP7 ADD MSTORE PUSH2 0x913 DUP3 DUP3 PUSH2 0x8A3 JUMP JUMPDEST SWAP2 POP POP PUSH1 0x40 DUP4 ADD MLOAD DUP5 DUP3 SUB PUSH1 0x40 DUP7 ADD MSTORE PUSH2 0x92D DUP3 DUP3 PUSH2 0x8A3 JUMP JUMPDEST SWAP2 POP POP DUP1 SWAP2 POP POP SWAP3 SWAP2 POP POP JUMP JUMPDEST PUSH1 0x0 PUSH2 0x946 DUP4 DUP4 PUSH2 0x8DC JUMP JUMPDEST SWAP1 POP SWAP3 SWAP2 POP POP JUMP JUMPDEST PUSH1 0x0 PUSH1 0x20 DUP3 ADD SWAP1 POP SWAP2 SWAP1 POP JUMP JUMPDEST PUSH1 0x0 PUSH2 0x966 DUP3 PUSH2 0x820 JUMP JUMPDEST PUSH2 0x970 DUP2 DUP6 PUSH2 0x82B JUMP JUMPDEST SWAP4 POP DUP4 PUSH1 0x20 DUP3 MUL DUP6 ADD PUSH2 0x982 DUP6 PUSH2 0x83C JUMP JUMPDEST DUP1 PUSH1 0x0 JUMPDEST DUP6 DUP2 LT ISZERO PUSH2 0x9BE JUMPI DUP5 DUP5 SUB DUP10 MSTORE DUP2 MLOAD PUSH2 0x99F DUP6 DUP3 PUSH2 0x93A JUMP JUMPDEST SWAP5 POP PUSH2 0x9AA DUP4 PUSH2 0x94E JUMP JUMPDEST SWAP3 POP PUSH1 0x20 DUP11 ADD SWAP10 POP POP PUSH1 0x1 DUP2 ADD SWAP1 POP PUSH2 0x986 JUMP JUMPDEST POP DUP3 SWAP8 POP DUP8 SWAP6 POP POP POP POP POP POP SWAP3 SWAP2 POP POP JUMP JUMPDEST PUSH1 0x0 PUSH1 0x20 DUP3 ADD SWAP1 POP DUP2 DUP2 SUB PUSH1 0x0 DUP4 ADD MSTORE PUSH2 0x9EA DUP2 DUP5 PUSH2 0x95B JUMP JUMPDEST SWAP1 POP SWAP3 SWAP2 POP POP JUMP JUMPDEST PUSH1 0x0 PUSH1 0x40 MLOAD SWAP1 POP SWAP1 JUMP JUMPDEST PUSH1 0x0 DUP1 REVERT JUMPDEST PUSH1 0x0 DUP1 REVERT JUMPDEST PUSH1 0x0 DUP2 SWAP1 POP SWAP2 SWAP1 POP JUMP JUMPDEST PUSH2 0xA19 DUP2 PUSH2 0xA06 JUMP JUMPDEST DUP2 EQ PUSH2 0xA24 JUMPI PUSH1 0x0 DUP1 REVERT JUMPDEST POP JUMP JUMPDEST PUSH1 0x0 DUP2 CALLDATALOAD SWAP1 POP PUSH2 0xA36 DUP2 PUSH2 0xA10 JUMP JUMPDEST SWAP3 SWAP2 POP POP JUMP JUMPDEST PUSH1 0x0 PUSH1 0x20 DUP3 DUP5 SUB SLT ISZERO PUSH2 0xA52 JUMPI PUSH2 0xA51 PUSH2 0x9FC JUMP JUMPDEST JUMPDEST PUSH1 0x0 PUSH2 0xA60 DUP5 DUP3 DUP6 ADD PUSH2 0xA27 JUMP JUMPDEST SWAP2 POP POP SWAP3 SWAP2 POP POP JUMP JUMPDEST PUSH1 0x0 DUP3 DUP3 MSTORE PUSH1 0x20 DUP3 ADD SWAP1 POP SWAP3 SWAP2 POP POP JUMP JUMPDEST PUSH1 0x0 PUSH2 0xA85 DUP3 PUSH2 0x84C JUMP JUMPDEST PUSH2 0xA8F DUP2 DUP6 PUSH2 0xA69 JUMP JUMPDEST SWAP4 POP PUSH2 0xA9F DUP2 DUP6 PUSH1 0x20 DUP7 ADD PUSH2 0x868 JUMP JUMPDEST PUSH2 0xAA8 DUP2 PUSH2 0x892 JUMP JUMPDEST DUP5 ADD SWAP2 POP POP SWAP3 SWAP2 POP POP JUMP JUMPDEST PUSH1 0x0 PUSH1 0x60 DUP3 ADD SWAP1 POP DUP2 DUP2 SUB PUSH1 0x0 DUP4 ADD MSTORE PUSH2 0xACD DUP2 DUP7 PUSH2 0xA7A JUMP JUMPDEST SWAP1 POP DUP2 DUP2 SUB PUSH1 0x20 DUP4 ADD MSTORE PUSH2 0xAE1 DUP2 DUP6 PUSH2 0xA7A JUMP JUMPDEST SWAP1 POP DUP2 DUP2 SUB PUSH1 0x40 DUP4 ADD MSTORE PUSH2 0xAF5 DUP2 DUP5 PUSH2 0xA7A JUMP JUMPDEST SWAP1 POP SWAP5 SWAP4 POP POP POP POP JUMP JUMPDEST PUSH1 0x0 DUP1 REVERT JUMPDEST PUSH1 0x0 DUP1 REVERT JUMPDEST PUSH32 0x4E487B7100000000000000000000000000000000000000000000000000000000 PUSH1 0x0 MSTORE PUSH1 0x41 PUSH1 0x4 MSTORE PUSH1 0x24 PUSH1 0x0 REVERT JUMPDEST PUSH2 0xB41 DUP3 PUSH2 0x892 JUMP JUMPDEST DUP2 ADD DUP2 DUP2 LT PUSH8 0xFFFFFFFFFFFFFFFF DUP3 GT OR ISZERO PUSH2 0xB60 JUMPI PUSH2 0xB5F PUSH2 0xB09 JUMP JUMPDEST JUMPDEST DUP1 PUSH1 0x40 MSTORE POP POP POP JUMP JUMPDEST PUSH1 0x0 PUSH2 0xB73 PUSH2 0x9F2 JUMP JUMPDEST SWAP1 POP PUSH2 0xB7F DUP3 DUP3 PUSH2 0xB38 JUMP JUMPDEST SWAP2 SWAP1 POP JUMP JUMPDEST PUSH1 0x0 PUSH8 0xFFFFFFFFFFFFFFFF DUP3 GT ISZERO PUSH2 0xB9F JUMPI PUSH2 0xB9E PUSH2 0xB09 JUMP JUMPDEST JUMPDEST PUSH2 0xBA8 DUP3 PUSH2 0x892 JUMP JUMPDEST SWAP1 POP PUSH1 0x20 DUP2 ADD SWAP1 POP SWAP2 SWAP1 POP JUMP JUMPDEST DUP3 DUP2 DUP4 CALLDATACOPY PUSH1 0x0 DUP4 DUP4 ADD MSTORE POP POP POP JUMP JUMPDEST PUSH1 0x0 PUSH2 0xBD7 PUSH2 0xBD2 DUP5 PUSH2 0xB84 JUMP JUMPDEST PUSH2 0xB69 JUMP JUMPDEST SWAP1 POP DUP3 DUP2 MSTORE PUSH1 0x20 DUP2 ADD DUP5 DUP5 DUP5 ADD GT ISZERO PUSH2 0xBF3 JUMPI PUSH2 0xBF2 PUSH2 0xB04 JUMP JUMPDEST JUMPDEST PUSH2 0xBFE DUP5 DUP3 DUP6 PUSH2 0xBB5 JUMP JUMPDEST POP SWAP4 SWAP3 POP POP POP JUMP JUMPDEST PUSH1 0x0 DUP3 PUSH1 0x1F DUP4 ADD SLT PUSH2 0xC1B JUMPI PUSH2 0xC1A PUSH2 0xAFF JUMP JUMPDEST JUMPDEST DUP2 CALLDATALOAD PUSH2 0xC2B DUP5 DUP3 PUSH1 0x20 DUP7 ADD PUSH2 0xBC4 JUMP JUMPDEST SWAP2 POP POP SWAP3 SWAP2 POP POP JUMP JUMPDEST PUSH1 0x0 DUP1 PUSH1 0x40 DUP4 DUP6 SUB SLT ISZERO PUSH2 0xC4B JUMPI PUSH2 0xC4A PUSH2 0x9FC JUMP JUMPDEST JUMPDEST PUSH1 0x0 DUP4 ADD CALLDATALOAD PUSH8 0xFFFFFFFFFFFFFFFF DUP2 GT ISZERO PUSH2 0xC69 JUMPI PUSH2 0xC68 PUSH2 0xA01 JUMP JUMPDEST JUMPDEST PUSH2 0xC75 DUP6 DUP3 DUP7 ADD PUSH2 0xC06 JUMP JUMPDEST SWAP3 POP POP PUSH1 0x20 DUP4 ADD CALLDATALOAD PUSH8 0xFFFFFFFFFFFFFFFF DUP2 GT ISZERO PUSH2 0xC96 JUMPI PUSH2 0xC95 PUSH2 0xA01 JUMP JUMPDEST JUMPDEST PUSH2 0xCA2 DUP6 DUP3 DUP7 ADD PUSH2 0xC06 JUMP JUMPDEST SWAP2 POP POP SWAP3 POP SWAP3 SWAP1 POP JUMP JUMPDEST PUSH1 0x0 DUP2 ISZERO ISZERO SWAP1 POP SWAP2 SWAP1 POP JUMP JUMPDEST PUSH2 0xCC1 DUP2 PUSH2 0xCAC JUMP JUMPDEST DUP3 MSTORE POP POP JUMP JUMPDEST PUSH1 0x0 PUSH1 0x20 DUP3 ADD SWAP1 POP PUSH2 0xCDC PUSH1 0x0 DUP4 ADD DUP5 PUSH2 0xCB8 JUMP JUMPDEST SWAP3 SWAP2 POP POP JUMP JUMPDEST PUSH1 0x0 DUP1 PUSH1 0x0 PUSH1 0x60 DUP5 DUP7 SUB SLT ISZERO PUSH2 0xCFB JUMPI PUSH2 0xCFA PUSH2 0x9FC JUMP JUMPDEST JUMPDEST PUSH1 0x0 DUP5 ADD CALLDATALOAD PUSH8 0xFFFFFFFFFFFFFFFF DUP2 GT ISZERO PUSH2 0xD19 JUMPI PUSH2 0xD18 PUSH2 0xA01 JUMP JUMPDEST JUMPDEST PUSH2 0xD25 DUP7 DUP3 DUP8 ADD PUSH2 0xC06 JUMP JUMPDEST SWAP4 POP POP PUSH1 0x20 DUP5 ADD CALLDATALOAD PUSH8 0xFFFFFFFFFFFFFFFF DUP2 GT ISZERO PUSH2 0xD46 JUMPI PUSH2 0xD45 PUSH2 0xA01 JUMP JUMPDEST JUMPDEST PUSH2 0xD52 DUP7 DUP3 DUP8 ADD PUSH2 0xC06 JUMP JUMPDEST SWAP3 POP POP PUSH1 0x40 DUP5 ADD CALLDATALOAD PUSH8 0xFFFFFFFFFFFFFFFF DUP2 GT ISZERO PUSH2 0xD73 JUMPI PUSH2 0xD72 PUSH2 0xA01 JUMP JUMPDEST JUMPDEST PUSH2 0xD7F DUP7 DUP3 DUP8 ADD PUSH2 0xC06 JUMP JUMPDEST SWAP2 POP POP SWAP3 POP SWAP3 POP SWAP3 JUMP JUMPDEST PUSH1 0x0 PUSH1 0x20 DUP3 ADD SWAP1 POP DUP2 DUP2 SUB PUSH1 0x0 DUP4 ADD MSTORE PUSH2 0xDA3 DUP2 DUP5 PUSH2 0xA7A JUMP JUMPDEST SWAP1 POP SWAP3 SWAP2 POP POP JUMP JUMPDEST PUSH32 0x4E487B7100000000000000000000000000000000000000000000000000000000 PUSH1 0x0 MSTORE PUSH1 0x22 PUSH1 0x4 MSTORE PUSH1 0x24 PUSH1 0x0 REVERT JUMPDEST PUSH1 0x0 PUSH1 0x2 DUP3 DIV SWAP1 POP PUSH1 0x1 DUP3 AND DUP1 PUSH2 0xDF2 JUMPI PUSH1 0x7F DUP3 AND SWAP2 POP JUMPDEST PUSH1 0x20 DUP3 LT DUP2 SUB PUSH2 0xE05 JUMPI PUSH2 0xE04 PUSH2 0xDAB JUMP JUMPDEST JUMPDEST POP SWAP2 SWAP1 POP JUMP JUMPDEST PUSH1 0x0 DUP2 SWAP1 POP DUP2 PUSH1 0x0 MSTORE PUSH1 0x20 PUSH1 0x0 KECCAK256 SWAP1 POP SWAP2 SWAP1 POP JUMP JUMPDEST PUSH1 0x0 PUSH1 0x20 PUSH1 0x1F DUP4 ADD DIV SWAP1 POP SWAP2 SWAP1 POP JUMP JUMPDEST PUSH1 0x0 DUP3 DUP3 SHL SWAP1 POP SWAP3 SWAP2 POP POP JUMP JUMPDEST PUSH1 0x0 PUSH1 0x8 DUP4 MUL PUSH2 0xE6D PUSH32 0xFFFFFFFFFFFFFFFFFFFFFFFFFFFFFFFFFFFFFFFFFFFFFFFFFFFFFFFFFFFFFFFF DUP3 PUSH2 0xE30 JUMP JUMPDEST PUSH2 0xE77 DUP7 DUP4 PUSH2 0xE30 JUMP JUMPDEST SWAP6 POP DUP1 NOT DUP5 AND SWAP4 POP DUP1 DUP7 AND DUP5 OR SWAP3 POP POP POP SWAP4 SWAP3 POP POP POP JUMP JUMPDEST PUSH1 0x0 DUP2 SWAP1 POP SWAP2 SWAP1 POP JUMP JUMPDEST PUSH1 0x0 PUSH2 0xEB4 PUSH2 0xEAF PUSH2 0xEAA DUP5 PUSH2 0xA06 JUMP JUMPDEST PUSH2 0xE8F JUMP JUMPDEST PUSH2 0xA06 JUMP JUMPDEST SWAP1 POP SWAP2 SWAP1 POP JUMP JUMPDEST PUSH1 0x0 DUP2 SWAP1 POP SWAP2 SWAP1 POP JUMP JUMPDEST PUSH2 0xECE DUP4 PUSH2 0xE99 JUMP JUMPDEST PUSH2 0xEE2 PUSH2 0xEDA DUP3 PUSH2 0xEBB JUMP JUMPDEST DUP5 DUP5 SLOAD PUSH2 0xE3D JUMP JUMPDEST DUP3 SSTORE POP POP POP POP JUMP JUMPDEST PUSH1 0x0 SWAP1 JUMP JUMPDEST PUSH2 0xEF7 PUSH2 0xEEA JUMP JUMPDEST PUSH2 0xF02 DUP2 DUP5 DUP5 PUSH2 0xEC5 JUMP JUMPDEST POP POP POP JUMP JUMPDEST JUMPDEST DUP2 DUP2 LT ISZERO PUSH2 0xF26 JUMPI PUSH2 0xF1B PUSH1 0x0 DUP3 PUSH2 0xEEF JUMP JUMPDEST PUSH1 0x1 DUP2 ADD SWAP1 POP PUSH2 0xF08 JUMP JUMPDEST POP POP JUMP JUMPDEST PUSH1 0x1F DUP3 GT ISZERO PUSH2 0xF6B JUMPI PUSH2 0xF3C DUP2 PUSH2 0xE0B JUMP JUMPDEST PUSH2 0xF45 DUP5 PUSH2 0xE20 JUMP JUMPDEST DUP2 ADD PUSH1 0x20 DUP6 LT ISZERO PUSH2 0xF54 JUMPI DUP2 SWAP1 POP JUMPDEST PUSH2 0xF68 PUSH2 0xF60 DUP6 PUSH2 0xE20 JUMP JUMPDEST DUP4 ADD DUP3 PUSH2 0xF07 JUMP JUMPDEST POP POP JUMPDEST POP POP POP JUMP JUMPDEST PUSH1 0x0 DUP3 DUP3 SHR SWAP1 POP SWAP3 SWAP2 POP POP JUMP JUMPDEST PUSH1 0x0 PUSH2 0xF8E PUSH1 0x0 NOT DUP5 PUSH1 0x8 MUL PUSH2 0xF70 JUMP JUMPDEST NOT DUP1 DUP4 AND SWAP2 POP POP SWAP3 SWAP2 POP POP JUMP JUMPDEST PUSH1 0x0 PUSH2 0xFA7 DUP4 DUP4 PUSH2 0xF7D JUMP JUMPDEST SWAP2 POP DUP3 PUSH1 0x2 MUL DUP3 OR SWAP1 POP SWAP3 SWAP2 POP POP JUMP JUMPDEST PUSH2 0xFC0 DUP3 PUSH2 0x84C JUMP JUMPDEST PUSH8 0xFFFFFFFFFFFFFFFF DUP2 GT ISZERO PUSH2 0xFD9 JUMPI PUSH2 0xFD8 PUSH2 0xB09 JUMP JUMPDEST JUMPDEST PUSH2 0xFE3 DUP3 SLOAD PUSH2 0xDDA JUMP JUMPDEST PUSH2 0xFEE DUP3 DUP3 DUP6 PUSH2 0xF2A JUMP JUMPDEST PUSH1 0x0 PUSH1 0x20 SWAP1 POP PUSH1 0x1F DUP4 GT PUSH1 0x1 DUP2 EQ PUSH2 0x1021 JUMPI PUSH1 0x0 DUP5 ISZERO PUSH2 0x100F JUMPI DUP3 DUP8 ADD MLOAD SWAP1 POP JUMPDEST PUSH2 0x1019 DUP6 DUP3 PUSH2 0xF9B JUMP JUMPDEST DUP7 SSTORE POP PUSH2 0x1081 JUMP JUMPDEST PUSH1 0x1F NOT DUP5 AND PUSH2 0x102F DUP7 PUSH2 0xE0B JUMP JUMPDEST PUSH1 0x0 JUMPDEST DUP3 DUP2 LT ISZERO PUSH2 0x1057 JUMPI DUP5 DUP10 ADD MLOAD DUP3 SSTORE PUSH1 0x1 DUP3 ADD SWAP2 POP PUSH1 0x20 DUP6 ADD SWAP5 POP PUSH1 0x20 DUP2 ADD SWAP1 POP PUSH2 0x1032 JUMP JUMPDEST DUP7 DUP4 LT ISZERO PUSH2 0x1074 JUMPI DUP5 DUP10 ADD MLOAD PUSH2 0x1070 PUSH1 0x1F DUP10 AND DUP3 PUSH2 0xF7D JUMP JUMPDEST DUP4 SSTORE POP JUMPDEST PUSH1 0x1 PUSH1 0x2 DUP9 MUL ADD DUP9 SSTORE POP POP POP JUMPDEST POP POP POP POP POP POP JUMP JUMPDEST PUSH32 0x4E487B7100000000000000000000000000000000000000000000000000000000 PUSH1 0x0 MSTORE PUSH1 0x32 PUSH1 0x4 MSTORE PUSH1 0x24 PUSH1 0x0 REVERT JUMPDEST PUSH32 0x4E487B7100000000000000000000000000000000000000000000000000000000 PUSH1 0x0 MSTORE PUSH1 0x11 PUSH1 0x4 MSTORE PUSH1 0x24 PUSH1 0x0 REVERT JUMPDEST PUSH1 0x0 PUSH2 0x10F2 DUP3 PUSH2 0xA06 JUMP JUMPDEST SWAP2 POP PUSH32 0xFFFFFFFFFFFFFFFFFFFFFFFFFFFFFFFFFFFFFFFFFFFFFFFFFFFFFFFFFFFFFFFF DUP3 SUB PUSH2 0x1124 JUMPI PUSH2 0x1123 PUSH2 0x10B8 JUMP JUMPDEST JUMPDEST PUSH1 0x1 DUP3 ADD SWAP1 POP SWAP2 SWAP1 POP JUMP JUMPDEST PUSH1 0x0 DUP2 SWAP1 POP SWAP3 SWAP2 POP POP JUMP JUMPDEST PUSH1 0x0 PUSH2 0x1145 DUP3 PUSH2 0x84C JUMP JUMPDEST PUSH2 0x114F DUP2 DUP6 PUSH2 0x112F JUMP JUMPDEST SWAP4 POP PUSH2 0x115F DUP2 DUP6 PUSH1 0x20 DUP7 ADD PUSH2 0x868 JUMP JUMPDEST DUP1 DUP5 ADD SWAP2 POP POP SWAP3 SWAP2 POP POP JUMP JUMPDEST PUSH1 0x0 PUSH2 0x1177 DUP3 DUP5 PUSH2 0x113A JUMP JUMPDEST SWAP2 POP DUP2 SWAP1 POP SWAP3 SWAP2 POP POP JUMP INVALID LOG2 PUSH5 0x6970667358 0x22 SLT KECCAK256 0xBD DUP1 PUSH13 0x3AE75D2DA2E2D17408E97E8C2E PUSH25 0xB6844E8667FB03650E802B2AB8535A64736F6C634300081300 CALLER "},"methodIdentifiers":{"doLogin(string,string)":"82e2ec2a","doSignup(string,string,string)":"c5c8b095","getUsers()":"00ce8e3e","users(uint256)":"365b98b2"}}}}}