{
  "_format": "hh-sol-artifact-1",
  "contractName": "DepositAmount",
  "sourceName": "contracts/TransferAmount.sol",
  "abi": [
    {
      "inputs": [
        {
          "internalType": "address",
          "name": "",
          "type": "address"
        }
      ],
      "name": "balance",
      "outputs": [
        {
          "internalType": "uint256",
          "name": "",
          "type": "uint256"
        }
      ],
      "stateMutability": "view",
      "type": "function"
    },
    {
      "inputs": [
        {
          "internalType": "address",
          "name": "account",
          "type": "address"
        }
      ],
      "name": "checkAccountBalance",
      "outputs": [
        {
          "internalType": "uint256",
          "name": "",
          "type": "uint256"
        }
      ],
      "stateMutability": "view",
      "type": "function"
    },
    {
      "inputs": [],
      "name": "contractBalance",
      "outputs": [
        {
          "internalType": "uint256",
          "name": "",
          "type": "uint256"
        }
      ],
      "stateMutability": "view",
      "type": "function"
    },
    {
      "inputs": [],
      "name": "depositAmount",
      "outputs": [],
      "stateMutability": "payable",
      "type": "function"
    },
    {
      "inputs": [
        {
          "internalType": "address",
          "name": "account",
          "type": "address"
        }
      ],
      "name": "getTransactionHistory",
      "outputs": [
        {
          "components": [
            {
              "internalType": "address",
              "name": "from",
              "type": "address"
            },
            {
              "internalType": "address",
              "name": "to",
              "type": "address"
            },
            {
              "internalType": "uint256",
              "name": "amount",
              "type": "uint256"
            },
            {
              "internalType": "uint256",
              "name": "nonce",
              "type": "uint256"
            },
            {
              "internalType": "uint256",
              "name": "gasfee",
              "type": "uint256"
            }
          ],
          "internalType": "struct TransferAmount.TransactionDetail[]",
          "name": "",
          "type": "tuple[]"
        }
      ],
      "stateMutability": "view",
      "type": "function"
    },
    {
      "inputs": [
        {
          "internalType": "address payable",
          "name": "receiverAccount",
          "type": "address"
        }
      ],
      "name": "payToOtherAccount",
      "outputs": [],
      "stateMutability": "payable",
      "type": "function"
    },
    {
      "inputs": [
        {
          "internalType": "address",
          "name": "",
          "type": "address"
        },
        {
          "internalType": "uint256",
          "name": "",
          "type": "uint256"
        }
      ],
      "name": "transactionHistory",
      "outputs": [
        {
          "internalType": "address",
          "name": "from",
          "type": "address"
        },
        {
          "internalType": "address",
          "name": "to",
          "type": "address"
        },
        {
          "internalType": "uint256",
          "name": "amount",
          "type": "uint256"
        },
        {
          "internalType": "uint256",
          "name": "nonce",
          "type": "uint256"
        },
        {
          "internalType": "uint256",
          "name": "gasfee",
          "type": "uint256"
        }
      ],
      "stateMutability": "view",
      "type": "function"
    },
    {
      "inputs": [
        {
          "internalType": "address",
          "name": "account",
          "type": "address"
        },
        {
          "internalType": "uint256",
          "name": "amount",
          "type": "uint256"
        }
      ],
      "name": "withdrawAmount",
      "outputs": [],
      "stateMutability": "nonpayable",
      "type": "function"
    }
  ],
  "bytecode": "0x608060405234801561001057600080fd5b50610fbd806100206000396000f3fe60806040526004361061007b5760003560e01c80638b7afe2e1161004e5780638b7afe2e1461010c578063d20cf0e814610137578063e3abc2bc14610174578063e3d670d7146101b55761007b565b8063419759f514610080578063530c06b41461008a578063736fe565146100c757806377926d52146100f0575b600080fd5b6100886101f2565b005b34801561009657600080fd5b506100b160048036038101906100ac9190610b16565b6103fb565b6040516100be9190610b5c565b60405180910390f35b3480156100d357600080fd5b506100ee60048036038101906100e99190610ba3565b610444565b005b61010a60048036038101906101059190610c21565b61069e565b005b34801561011857600080fd5b50610121610899565b60405161012e9190610b5c565b60405180910390f35b34801561014357600080fd5b5061015e60048036038101906101599190610b16565b6108a1565b60405161016b9190610d83565b60405180910390f35b34801561018057600080fd5b5061019b60048036038101906101969190610ba3565b610a08565b6040516101ac959493929190610db4565b60405180910390f35b3480156101c157600080fd5b506101dc60048036038101906101d79190610b16565b610a9b565b6040516101e99190610b5c565b60405180910390f35b60003411610235576040517f08c379a000000000000000000000000000000000000000000000000000000000815260040161022c90610e64565b60405180910390fd5b34600160003373ffffffffffffffffffffffffffffffffffffffff1673ffffffffffffffffffffffffffffffffffffffff16815260200190815260200160002060008282546102849190610eb3565b9250508190555060006040518060a001604052803373ffffffffffffffffffffffffffffffffffffffff1681526020013073ffffffffffffffffffffffffffffffffffffffff1681526020013481526020014381526020013a81525090506000803373ffffffffffffffffffffffffffffffffffffffff1673ffffffffffffffffffffffffffffffffffffffff16815260200190815260200160002081908060018154018082558091505060019003906000526020600020906005020160009091909190915060008201518160000160006101000a81548173ffffffffffffffffffffffffffffffffffffffff021916908373ffffffffffffffffffffffffffffffffffffffff16021790555060208201518160010160006101000a81548173ffffffffffffffffffffffffffffffffffffffff021916908373ffffffffffffffffffffffffffffffffffffffff160217905550604082015181600201556060820151816003015560808201518160040155505050565b6000600160008373ffffffffffffffffffffffffffffffffffffffff1673ffffffffffffffffffffffffffffffffffffffff168152602001908152602001600020549050919050565b8061044e836103fb565b101561048f576040517f08c379a000000000000000000000000000000000000000000000000000000000815260040161048690610f33565b60405180910390fd5b80600160003373ffffffffffffffffffffffffffffffffffffffff1673ffffffffffffffffffffffffffffffffffffffff16815260200190815260200160002060008282546104de9190610f53565b925050819055503373ffffffffffffffffffffffffffffffffffffffff166108fc829081150290604051600060405180830381858888f1935050505015801561052b573d6000803e3d6000fd5b5060006040518060a001604052803073ffffffffffffffffffffffffffffffffffffffff1681526020013373ffffffffffffffffffffffffffffffffffffffff1681526020018381526020014381526020013a81525090506000803373ffffffffffffffffffffffffffffffffffffffff1673ffffffffffffffffffffffffffffffffffffffff16815260200190815260200160002081908060018154018082558091505060019003906000526020600020906005020160009091909190915060008201518160000160006101000a81548173ffffffffffffffffffffffffffffffffffffffff021916908373ffffffffffffffffffffffffffffffffffffffff16021790555060208201518160010160006101000a81548173ffffffffffffffffffffffffffffffffffffffff021916908373ffffffffffffffffffffffffffffffffffffffff1602179055506040820151816002015560608201518160030155608082015181600401555050505050565b600034116106e1576040517f08c379a00000000000000000000000000000000000000000000000000000000081526004016106d890610e64565b60405180910390fd5b60006040518060a001604052803373ffffffffffffffffffffffffffffffffffffffff1681526020018373ffffffffffffffffffffffffffffffffffffffff1681526020013481526020014381526020013a81525090506000803373ffffffffffffffffffffffffffffffffffffffff1673ffffffffffffffffffffffffffffffffffffffff16815260200190815260200160002081908060018154018082558091505060019003906000526020600020906005020160009091909190915060008201518160000160006101000a81548173ffffffffffffffffffffffffffffffffffffffff021916908373ffffffffffffffffffffffffffffffffffffffff16021790555060208201518160010160006101000a81548173ffffffffffffffffffffffffffffffffffffffff021916908373ffffffffffffffffffffffffffffffffffffffff16021790555060408201518160020155606082015181600301556080820151816004015550508173ffffffffffffffffffffffffffffffffffffffff166108fc349081150290604051600060405180830381858888f19350505050158015610894573d6000803e3d6000fd5b505050565b600047905090565b60606000808373ffffffffffffffffffffffffffffffffffffffff1673ffffffffffffffffffffffffffffffffffffffff168152602001908152602001600020805480602002602001604051908101604052809291908181526020016000905b828210156109fd57838290600052602060002090600502016040518060a00160405290816000820160009054906101000a900473ffffffffffffffffffffffffffffffffffffffff1673ffffffffffffffffffffffffffffffffffffffff1673ffffffffffffffffffffffffffffffffffffffff1681526020016001820160009054906101000a900473ffffffffffffffffffffffffffffffffffffffff1673ffffffffffffffffffffffffffffffffffffffff1673ffffffffffffffffffffffffffffffffffffffff168152602001600282015481526020016003820154815260200160048201548152505081526020019060010190610901565b505050509050919050565b60006020528160005260406000208181548110610a2457600080fd5b9060005260206000209060050201600091509150508060000160009054906101000a900473ffffffffffffffffffffffffffffffffffffffff16908060010160009054906101000a900473ffffffffffffffffffffffffffffffffffffffff16908060020154908060030154908060040154905085565b60016020528060005260406000206000915090505481565b600080fd5b600073ffffffffffffffffffffffffffffffffffffffff82169050919050565b6000610ae382610ab8565b9050919050565b610af381610ad8565b8114610afe57600080fd5b50565b600081359050610b1081610aea565b92915050565b600060208284031215610b2c57610b2b610ab3565b5b6000610b3a84828501610b01565b91505092915050565b6000819050919050565b610b5681610b43565b82525050565b6000602082019050610b716000830184610b4d565b92915050565b610b8081610b43565b8114610b8b57600080fd5b50565b600081359050610b9d81610b77565b92915050565b60008060408385031215610bba57610bb9610ab3565b5b6000610bc885828601610b01565b9250506020610bd985828601610b8e565b9150509250929050565b6000610bee82610ab8565b9050919050565b610bfe81610be3565b8114610c0957600080fd5b50565b600081359050610c1b81610bf5565b92915050565b600060208284031215610c3757610c36610ab3565b5b6000610c4584828501610c0c565b91505092915050565b600081519050919050565b600082825260208201905092915050565b6000819050602082019050919050565b610c8381610ad8565b82525050565b610c9281610b43565b82525050565b60a082016000820151610cae6000850182610c7a565b506020820151610cc16020850182610c7a565b506040820151610cd46040850182610c89565b506060820151610ce76060850182610c89565b506080820151610cfa6080850182610c89565b50505050565b6000610d0c8383610c98565b60a08301905092915050565b6000602082019050919050565b6000610d3082610c4e565b610d3a8185610c59565b9350610d4583610c6a565b8060005b83811015610d76578151610d5d8882610d00565b9750610d6883610d18565b925050600181019050610d49565b5085935050505092915050565b60006020820190508181036000830152610d9d8184610d25565b905092915050565b610dae81610ad8565b82525050565b600060a082019050610dc96000830188610da5565b610dd66020830187610da5565b610de36040830186610b4d565b610df06060830185610b4d565b610dfd6080830184610b4d565b9695505050505050565b600082825260208201905092915050565b7f416d6f756e74206d7573742062652067726561746572207468616e2030000000600082015250565b6000610e4e601d83610e07565b9150610e5982610e18565b602082019050919050565b60006020820190508181036000830152610e7d81610e41565b9050919050565b7f4e487b7100000000000000000000000000000000000000000000000000000000600052601160045260246000fd5b6000610ebe82610b43565b9150610ec983610b43565b9250828201905080821115610ee157610ee0610e84565b5b92915050565b7f7468657265206973206e6f20656e6f75676820616d6f756e7400000000000000600082015250565b6000610f1d601983610e07565b9150610f2882610ee7565b602082019050919050565b60006020820190508181036000830152610f4c81610f10565b9050919050565b6000610f5e82610b43565b9150610f6983610b43565b9250828203905081811115610f8157610f80610e84565b5b9291505056fea26469706673582212205445a3c916cb1a6c507c89f9dece262d3f7d22ff7063401228506d5ce04ba40d64736f6c63430008130033",
  "linkReferences": {},
  "deployedLinkReferences": {}
}