{
  "_format": "hh-sol-artifact-1",
  "contractName": "TransferAmount",
  "sourceName": "contracts/TransferAmount.sol",
  "abi": [
    {
      "inputs": [
        {
          "internalType": "address",
          "name": "account",
          "type": "address"
        }
      ],
      "name": "getTransactionHistory",
      "outputs": [
        {
          "components": [
            {
              "internalType": "address",
              "name": "from",
              "type": "address"
            },
            {
              "internalType": "address",
              "name": "to",
              "type": "address"
            },
            {
              "internalType": "uint256",
              "name": "amount",
              "type": "uint256"
            },
            {
              "internalType": "uint256",
              "name": "nonce",
              "type": "uint256"
            },
            {
              "internalType": "uint256",
              "name": "gasfee",
              "type": "uint256"
            }
          ],
          "internalType": "struct TransferAmount.TransactionDetail[]",
          "name": "",
          "type": "tuple[]"
        }
      ],
      "stateMutability": "view",
      "type": "function"
    },
    {
      "inputs": [
        {
          "internalType": "address payable",
          "name": "receiverAccount",
          "type": "address"
        }
      ],
      "name": "payToOtherAccount",
      "outputs": [],
      "stateMutability": "payable",
      "type": "function"
    },
    {
      "inputs": [
        {
          "internalType": "address",
          "name": "",
          "type": "address"
        },
        {
          "internalType": "uint256",
          "name": "",
          "type": "uint256"
        }
      ],
      "name": "transactionHistory",
      "outputs": [
        {
          "internalType": "address",
          "name": "from",
          "type": "address"
        },
        {
          "internalType": "address",
          "name": "to",
          "type": "address"
        },
        {
          "internalType": "uint256",
          "name": "amount",
          "type": "uint256"
        },
        {
          "internalType": "uint256",
          "name": "nonce",
          "type": "uint256"
        },
        {
          "internalType": "uint256",
          "name": "gasfee",
          "type": "uint256"
        }
      ],
      "stateMutability": "view",
      "type": "function"
    }
  ],
  "bytecode": "0x608060405234801561001057600080fd5b506108b4806100206000396000f3fe6080604052600436106100345760003560e01c806377926d5214610039578063d20cf0e814610055578063e3abc2bc14610092575b600080fd5b610053600480360381019061004e919061052b565b6100d3565b005b34801561006157600080fd5b5061007c60048036038101906100779190610596565b6102ce565b6040516100899190610702565b60405180910390f35b34801561009e57600080fd5b506100b960048036038101906100b49190610750565b610435565b6040516100ca9594939291906107ae565b60405180910390f35b60003411610116576040517f08c379a000000000000000000000000000000000000000000000000000000000815260040161010d9061085e565b60405180910390fd5b60006040518060a001604052803373ffffffffffffffffffffffffffffffffffffffff1681526020018373ffffffffffffffffffffffffffffffffffffffff1681526020013481526020014381526020013a81525090506000803373ffffffffffffffffffffffffffffffffffffffff1673ffffffffffffffffffffffffffffffffffffffff16815260200190815260200160002081908060018154018082558091505060019003906000526020600020906005020160009091909190915060008201518160000160006101000a81548173ffffffffffffffffffffffffffffffffffffffff021916908373ffffffffffffffffffffffffffffffffffffffff16021790555060208201518160010160006101000a81548173ffffffffffffffffffffffffffffffffffffffff021916908373ffffffffffffffffffffffffffffffffffffffff16021790555060408201518160020155606082015181600301556080820151816004015550508173ffffffffffffffffffffffffffffffffffffffff166108fc349081150290604051600060405180830381858888f193505050501580156102c9573d6000803e3d6000fd5b505050565b60606000808373ffffffffffffffffffffffffffffffffffffffff1673ffffffffffffffffffffffffffffffffffffffff168152602001908152602001600020805480602002602001604051908101604052809291908181526020016000905b8282101561042a57838290600052602060002090600502016040518060a00160405290816000820160009054906101000a900473ffffffffffffffffffffffffffffffffffffffff1673ffffffffffffffffffffffffffffffffffffffff1673ffffffffffffffffffffffffffffffffffffffff1681526020016001820160009054906101000a900473ffffffffffffffffffffffffffffffffffffffff1673ffffffffffffffffffffffffffffffffffffffff1673ffffffffffffffffffffffffffffffffffffffff16815260200160028201548152602001600382015481526020016004820154815250508152602001906001019061032e565b505050509050919050565b6000602052816000526040600020818154811061045157600080fd5b9060005260206000209060050201600091509150508060000160009054906101000a900473ffffffffffffffffffffffffffffffffffffffff16908060010160009054906101000a900473ffffffffffffffffffffffffffffffffffffffff16908060020154908060030154908060040154905085565b600080fd5b600073ffffffffffffffffffffffffffffffffffffffff82169050919050565b60006104f8826104cd565b9050919050565b610508816104ed565b811461051357600080fd5b50565b600081359050610525816104ff565b92915050565b600060208284031215610541576105406104c8565b5b600061054f84828501610516565b91505092915050565b6000610563826104cd565b9050919050565b61057381610558565b811461057e57600080fd5b50565b6000813590506105908161056a565b92915050565b6000602082840312156105ac576105ab6104c8565b5b60006105ba84828501610581565b91505092915050565b600081519050919050565b600082825260208201905092915050565b6000819050602082019050919050565b6105f881610558565b82525050565b6000819050919050565b610611816105fe565b82525050565b60a08201600082015161062d60008501826105ef565b50602082015161064060208501826105ef565b5060408201516106536040850182610608565b5060608201516106666060850182610608565b5060808201516106796080850182610608565b50505050565b600061068b8383610617565b60a08301905092915050565b6000602082019050919050565b60006106af826105c3565b6106b981856105ce565b93506106c4836105df565b8060005b838110156106f55781516106dc888261067f565b97506106e783610697565b9250506001810190506106c8565b5085935050505092915050565b6000602082019050818103600083015261071c81846106a4565b905092915050565b61072d816105fe565b811461073857600080fd5b50565b60008135905061074a81610724565b92915050565b60008060408385031215610767576107666104c8565b5b600061077585828601610581565b92505060206107868582860161073b565b9150509250929050565b61079981610558565b82525050565b6107a8816105fe565b82525050565b600060a0820190506107c36000830188610790565b6107d06020830187610790565b6107dd604083018661079f565b6107ea606083018561079f565b6107f7608083018461079f565b9695505050505050565b600082825260208201905092915050565b7f416d6f756e74206d7573742062652067726561746572207468616e2030000000600082015250565b6000610848601d83610801565b915061085382610812565b602082019050919050565b600060208201905081810360008301526108778161083b565b905091905056fea2646970667358221220b0ca82d78390120c592416efb8b3300c27fbe75067a1992c34da66c6f372622364736f6c63430008130033",
  "linkReferences": {},
  "deployedLinkReferences": {}
}