{
  "_format": "hh-sol-artifact-1",
  "contractName": "Authentication",
  "sourceName": "contracts/Authentication.sol",
  "abi": [
    {
      "inputs": [
        {
          "internalType": "string",
          "name": "email",
          "type": "string"
        },
        {
          "internalType": "string",
          "name": "password",
          "type": "string"
        }
      ],
      "name": "doLogin",
      "outputs": [
        {
          "internalType": "bool",
          "name": "",
          "type": "bool"
        }
      ],
      "stateMutability": "view",
      "type": "function"
    },
    {
      "inputs": [
        {
          "internalType": "string",
          "name": "name",
          "type": "string"
        },
        {
          "internalType": "string",
          "name": "email",
          "type": "string"
        },
        {
          "internalType": "string",
          "name": "password",
          "type": "string"
        }
      ],
      "name": "doSignup",
      "outputs": [
        {
          "internalType": "string",
          "name": "",
          "type": "string"
        }
      ],
      "stateMutability": "nonpayable",
      "type": "function"
    },
    {
      "inputs": [],
      "name": "getUsers",
      "outputs": [
        {
          "components": [
            {
              "internalType": "string",
              "name": "name",
              "type": "string"
            },
            {
              "internalType": "string",
              "name": "email",
              "type": "string"
            },
            {
              "internalType": "string",
              "name": "password",
              "type": "string"
            }
          ],
          "internalType": "struct Authentication.User[]",
          "name": "",
          "type": "tuple[]"
        }
      ],
      "stateMutability": "view",
      "type": "function"
    },
    {
      "inputs": [
        {
          "internalType": "uint256",
          "name": "",
          "type": "uint256"
        }
      ],
      "name": "users",
      "outputs": [
        {
          "internalType": "string",
          "name": "name",
          "type": "string"
        },
        {
          "internalType": "string",
          "name": "email",
          "type": "string"
        },
        {
          "internalType": "string",
          "name": "password",
          "type": "string"
        }
      ],
      "stateMutability": "view",
      "type": "function"
    }
  ],
  "bytecode": "0x608060405234801561001057600080fd5b506111b8806100206000396000f3fe608060405234801561001057600080fd5b506004361061004b5760003560e01c8062ce8e3e14610050578063365b98b21461006e57806382e2ec2a146100a0578063c5c8b095146100d0575b600080fd5b610058610100565b60405161006591906109d0565b60405180910390f35b61008860048036038101906100839190610a3c565b610315565b60405161009793929190610ab3565b60405180910390f35b6100ba60048036038101906100b59190610c34565b6104e7565b6040516100c79190610cc7565b60405180910390f35b6100ea60048036038101906100e59190610ce2565b610528565b6040516100f79190610d89565b60405180910390f35b60606000805480602002602001604051908101604052809291908181526020016000905b8282101561030c578382906000526020600020906003020160405180606001604052908160008201805461015790610dda565b80601f016020809104026020016040519081016040528092919081815260200182805461018390610dda565b80156101d05780601f106101a5576101008083540402835291602001916101d0565b820191906000526020600020905b8154815290600101906020018083116101b357829003601f168201915b505050505081526020016001820180546101e990610dda565b80601f016020809104026020016040519081016040528092919081815260200182805461021590610dda565b80156102625780601f1061023757610100808354040283529160200191610262565b820191906000526020600020905b81548152906001019060200180831161024557829003601f168201915b5050505050815260200160028201805461027b90610dda565b80601f01602080910402602001604051908101604052809291908181526020018280546102a790610dda565b80156102f45780601f106102c9576101008083540402835291602001916102f4565b820191906000526020600020905b8154815290600101906020018083116102d757829003601f168201915b50505050508152505081526020019060010190610124565b50505050905090565b6000818154811061032557600080fd5b906000526020600020906003020160009150905080600001805461034890610dda565b80601f016020809104026020016040519081016040528092919081815260200182805461037490610dda565b80156103c15780601f10610396576101008083540402835291602001916103c1565b820191906000526020600020905b8154815290600101906020018083116103a457829003601f168201915b5050505050908060010180546103d690610dda565b80601f016020809104026020016040519081016040528092919081815260200182805461040290610dda565b801561044f5780601f106104245761010080835404028352916020019161044f565b820191906000526020600020905b81548152906001019060200180831161043257829003601f168201915b50505050509080600201805461046490610dda565b80601f016020809104026020016040519081016040528092919081815260200182805461049090610dda565b80156104dd5780601f106104b2576101008083540402835291602001916104dd565b820191906000526020600020905b8154815290600101906020018083116104c057829003601f168201915b5050505050905083565b600080604051806060016040528060405180602001604052806000815250815260200185815260200184815250905061051f816105f9565b91505092915050565b6060600060405180606001604052808681526020018581526020018481525090506000819080600181540180825580915050600190039060005260206000209060030201600090919091909150600082015181600001908161058a9190610fb7565b5060208201518160010190816105a09190610fb7565b5060408201518160020190816105b69190610fb7565b5050506040518060400160405280601681526020017f5375636365737366756c6c79205369676e6564205570000000000000000000008152509150509392505050565b600080600090505b6000805490508110156107bc5760006106cb6000838154811061062757610626611089565b5b9060005260206000209060030201600101805461064390610dda565b80601f016020809104026020016040519081016040528092919081815260200182805461066f90610dda565b80156106bc5780601f10610691576101008083540402835291602001916106bc565b820191906000526020600020905b81548152906001019060200180831161069f57829003601f168201915b505050505085602001516107c7565b9050600061078a600084815481106106e6576106e5611089565b5b9060005260206000209060030201600201805461070290610dda565b80601f016020809104026020016040519081016040528092919081815260200182805461072e90610dda565b801561077b5780601f106107505761010080835404028352916020019161077b565b820191906000526020600020905b81548152906001019060200180831161075e57829003601f168201915b505050505086604001516107c7565b90508180156107965750805b156107a757600193505050506107c2565b505080806107b4906110e7565b915050610601565b50600090505b919050565b6000816040516020016107da919061116b565b6040516020818303038152906040528051906020012083604051602001610801919061116b565b6040516020818303038152906040528051906020012014905092915050565b600081519050919050565b600082825260208201905092915050565b6000819050602082019050919050565b600081519050919050565b600082825260208201905092915050565b60005b8381101561088657808201518184015260208101905061086b565b60008484015250505050565b6000601f19601f8301169050919050565b60006108ae8261084c565b6108b88185610857565b93506108c8818560208601610868565b6108d181610892565b840191505092915050565b600060608301600083015184820360008601526108f982826108a3565b9150506020830151848203602086015261091382826108a3565b9150506040830151848203604086015261092d82826108a3565b9150508091505092915050565b600061094683836108dc565b905092915050565b6000602082019050919050565b600061096682610820565b610970818561082b565b9350836020820285016109828561083c565b8060005b858110156109be578484038952815161099f858261093a565b94506109aa8361094e565b925060208a01995050600181019050610986565b50829750879550505050505092915050565b600060208201905081810360008301526109ea818461095b565b905092915050565b6000604051905090565b600080fd5b600080fd5b6000819050919050565b610a1981610a06565b8114610a2457600080fd5b50565b600081359050610a3681610a10565b92915050565b600060208284031215610a5257610a516109fc565b5b6000610a6084828501610a27565b91505092915050565b600082825260208201905092915050565b6000610a858261084c565b610a8f8185610a69565b9350610a9f818560208601610868565b610aa881610892565b840191505092915050565b60006060820190508181036000830152610acd8186610a7a565b90508181036020830152610ae18185610a7a565b90508181036040830152610af58184610a7a565b9050949350505050565b600080fd5b600080fd5b7f4e487b7100000000000000000000000000000000000000000000000000000000600052604160045260246000fd5b610b4182610892565b810181811067ffffffffffffffff82111715610b6057610b5f610b09565b5b80604052505050565b6000610b736109f2565b9050610b7f8282610b38565b919050565b600067ffffffffffffffff821115610b9f57610b9e610b09565b5b610ba882610892565b9050602081019050919050565b82818337600083830152505050565b6000610bd7610bd284610b84565b610b69565b905082815260208101848484011115610bf357610bf2610b04565b5b610bfe848285610bb5565b509392505050565b600082601f830112610c1b57610c1a610aff565b5b8135610c2b848260208601610bc4565b91505092915050565b60008060408385031215610c4b57610c4a6109fc565b5b600083013567ffffffffffffffff811115610c6957610c68610a01565b5b610c7585828601610c06565b925050602083013567ffffffffffffffff811115610c9657610c95610a01565b5b610ca285828601610c06565b9150509250929050565b60008115159050919050565b610cc181610cac565b82525050565b6000602082019050610cdc6000830184610cb8565b92915050565b600080600060608486031215610cfb57610cfa6109fc565b5b600084013567ffffffffffffffff811115610d1957610d18610a01565b5b610d2586828701610c06565b935050602084013567ffffffffffffffff811115610d4657610d45610a01565b5b610d5286828701610c06565b925050604084013567ffffffffffffffff811115610d7357610d72610a01565b5b610d7f86828701610c06565b9150509250925092565b60006020820190508181036000830152610da38184610a7a565b905092915050565b7f4e487b7100000000000000000000000000000000000000000000000000000000600052602260045260246000fd5b60006002820490506001821680610df257607f821691505b602082108103610e0557610e04610dab565b5b50919050565b60008190508160005260206000209050919050565b60006020601f8301049050919050565b600082821b905092915050565b600060088302610e6d7fffffffffffffffffffffffffffffffffffffffffffffffffffffffffffffffff82610e30565b610e778683610e30565b95508019841693508086168417925050509392505050565b6000819050919050565b6000610eb4610eaf610eaa84610a06565b610e8f565b610a06565b9050919050565b6000819050919050565b610ece83610e99565b610ee2610eda82610ebb565b848454610e3d565b825550505050565b600090565b610ef7610eea565b610f02818484610ec5565b505050565b5b81811015610f2657610f1b600082610eef565b600181019050610f08565b5050565b601f821115610f6b57610f3c81610e0b565b610f4584610e20565b81016020851015610f54578190505b610f68610f6085610e20565b830182610f07565b50505b505050565b600082821c905092915050565b6000610f8e60001984600802610f70565b1980831691505092915050565b6000610fa78383610f7d565b9150826002028217905092915050565b610fc08261084c565b67ffffffffffffffff811115610fd957610fd8610b09565b5b610fe38254610dda565b610fee828285610f2a565b600060209050601f831160018114611021576000841561100f578287015190505b6110198582610f9b565b865550611081565b601f19841661102f86610e0b565b60005b8281101561105757848901518255600182019150602085019450602081019050611032565b868310156110745784890151611070601f891682610f7d565b8355505b6001600288020188555050505b505050505050565b7f4e487b7100000000000000000000000000000000000000000000000000000000600052603260045260246000fd5b7f4e487b7100000000000000000000000000000000000000000000000000000000600052601160045260246000fd5b60006110f282610a06565b91507fffffffffffffffffffffffffffffffffffffffffffffffffffffffffffffffff8203611124576111236110b8565b5b600182019050919050565b600081905092915050565b60006111458261084c565b61114f818561112f565b935061115f818560208601610868565b80840191505092915050565b6000611177828461113a565b91508190509291505056fea2646970667358221220bd806c3ae75d2da2e2d17408e97e8c2e78b6844e8667fb03650e802b2ab8535a64736f6c63430008130033",
  "linkReferences": {},
  "deployedLinkReferences": {}
}