{
  "_format": "hh-sol-artifact-1",
  "contractName": "Token",
  "sourceName": "contracts/Token.sol",
  "abi": [
    {
      "anonymous": false,
      "inputs": [
        {
          "indexed": false,
          "internalType": "string",
          "name": "",
          "type": "string"
        }
      ],
      "name": "payedSuccess",
      "type": "event"
    },
    {
      "inputs": [],
      "name": "doDecrement",
      "outputs": [],
      "stateMutability": "nonpayable",
      "type": "function"
    },
    {
      "inputs": [],
      "name": "doIncrement",
      "outputs": [],
      "stateMutability": "nonpayable",
      "type": "function"
    },
    {
      "inputs": [],
      "name": "getCount",
      "outputs": [
        {
          "internalType": "int8",
          "name": "",
          "type": "int8"
        }
      ],
      "stateMutability": "view",
      "type": "function"
    },
    {
      "inputs": [
        {
          "internalType": "address payable",
          "name": "receiverAccount",
          "type": "address"
        }
      ],
      "name": "payToOtherAccount",
      "outputs": [],
      "stateMutability": "payable",
      "type": "function"
    }
  ],
  "bytecode": "0x608060405234801561001057600080fd5b5061041f806100206000396000f3fe60806040526004361061003f5760003560e01c806321ecb734146100445780634ebbe1cf1461005b57806377926d5214610072578063a87d942c1461008e575b600080fd5b34801561005057600080fd5b506100596100b9565b005b34801561006757600080fd5b506100706100f4565b005b61008c60048036038101906100879190610227565b61012f565b005b34801561009a57600080fd5b506100a36101ae565b6040516100b09190610270565b60405180910390f35b60016000808282829054906101000a900460000b6100d791906102ba565b92506101000a81548160ff021916908360000b60ff160217905550565b60016000808282829054906101000a900460000b6101129190610313565b92506101000a81548160ff021916908360000b60ff160217905550565b8073ffffffffffffffffffffffffffffffffffffffff166108fc349081150290604051600060405180830381858888f19350505050158015610175573d6000803e3d6000fd5b507f17b1b9d75926e7f770a33ab63e634b2d98850e6d3c131b28388e44ea417982996040516101a3906103c9565b60405180910390a150565b60008060009054906101000a900460000b905090565b600080fd5b600073ffffffffffffffffffffffffffffffffffffffff82169050919050565b60006101f4826101c9565b9050919050565b610204816101e9565b811461020f57600080fd5b50565b600081359050610221816101fb565b92915050565b60006020828403121561023d5761023c6101c4565b5b600061024b84828501610212565b91505092915050565b60008160000b9050919050565b61026a81610254565b82525050565b60006020820190506102856000830184610261565b92915050565b7f4e487b7100000000000000000000000000000000000000000000000000000000600052601160045260246000fd5b60006102c582610254565b91506102d083610254565b92508282039050607f81137fffffffffffffffffffffffffffffffffffffffffffffffffffffffffffffff808212171561030d5761030c61028b565b5b92915050565b600061031e82610254565b915061032983610254565b925082820190507fffffffffffffffffffffffffffffffffffffffffffffffffffffffffffffff808112607f821317156103665761036561028b565b5b92915050565b600082825260208201905092915050565b7f7375636365737366756c6c79207472616e736665726400000000000000000000600082015250565b60006103b360168361036c565b91506103be8261037d565b602082019050919050565b600060208201905081810360008301526103e2816103a6565b905091905056fea26469706673582212205c2f5f6c704d950a3ca283e567fa4a2b96f1fd789c072db37a780608d41392f564736f6c63430008130033",
  "linkReferences": {},
  "deployedLinkReferences": {}
}